{
  "contractName": "Poster",
  "abi": [
    {
      "inputs": [
        {
          "internalType": "address",
          "name": "_tokenAddress",
          "type": "address"
        },
        {
          "internalType": "uint256",
          "name": "_threshold",
          "type": "uint256"
        }
      ],
      "stateMutability": "nonpayable",
      "type": "constructor"
    },
    {
      "anonymous": false,
      "inputs": [
        {
          "indexed": true,
          "internalType": "address",
          "name": "user",
          "type": "address"
        },
        {
          "indexed": false,
          "internalType": "string",
          "name": "content",
          "type": "string"
        },
        {
          "indexed": true,
          "internalType": "string",
          "name": "tag",
          "type": "string"
        }
      ],
      "name": "NewPost",
      "type": "event"
    },
    {
      "anonymous": false,
      "inputs": [
        {
          "indexed": true,
          "internalType": "address",
          "name": "previousOwner",
          "type": "address"
        },
        {
          "indexed": true,
          "internalType": "address",
          "name": "newOwner",
          "type": "address"
        }
      ],
      "name": "OwnershipTransferred",
      "type": "event"
    },
    {
      "inputs": [],
      "name": "owner",
      "outputs": [
        {
          "internalType": "address",
          "name": "",
          "type": "address"
        }
      ],
      "stateMutability": "view",
      "type": "function",
      "constant": true
    },
    {
      "inputs": [
        {
          "internalType": "uint256",
          "name": "",
          "type": "uint256"
        }
      ],
      "name": "posts",
      "outputs": [
        {
          "internalType": "address",
          "name": "user",
          "type": "address"
        },
        {
          "internalType": "string",
          "name": "content",
          "type": "string"
        },
        {
          "internalType": "string",
          "name": "tag",
          "type": "string"
        }
      ],
      "stateMutability": "view",
      "type": "function",
      "constant": true
    },
    {
      "inputs": [
        {
          "internalType": "address",
          "name": "_newOwner",
          "type": "address"
        }
      ],
      "name": "transferOwnership",
      "outputs": [],
      "stateMutability": "nonpayable",
      "type": "function"
    },
    {
      "inputs": [
        {
          "internalType": "string",
          "name": "content",
          "type": "string"
        },
        {
          "internalType": "string",
          "name": "tag",
          "type": "string"
        }
      ],
      "name": "post",
      "outputs": [],
      "stateMutability": "nonpayable",
      "type": "function"
    },
    {
      "inputs": [],
      "name": "getPosts",
      "outputs": [
        {
          "components": [
            {
              "internalType": "address",
              "name": "user",
              "type": "address"
            },
            {
              "internalType": "string",
              "name": "content",
              "type": "string"
            },
            {
              "internalType": "string",
              "name": "tag",
              "type": "string"
            }
          ],
          "internalType": "struct Poster.Post[]",
          "name": "",
          "type": "tuple[]"
        }
      ],
      "stateMutability": "view",
      "type": "function",
      "constant": true
    },
    {
      "inputs": [
        {
          "internalType": "address",
          "name": "_newTokenAddress",
          "type": "address"
        }
      ],
      "name": "setTokenAddress",
      "outputs": [],
      "stateMutability": "nonpayable",
      "type": "function"
    },
    {
      "inputs": [
        {
          "internalType": "uint256",
          "name": "_newThreshold",
          "type": "uint256"
        }
      ],
      "name": "setThreshold",
      "outputs": [],
      "stateMutability": "nonpayable",
      "type": "function"
    }
  ],
  "bytecode": "0x608060405234801562000010575f80fd5b5060405162001240380380620012408339818101604052810190620000369190620001f2565b815f806101000a81548173ffffffffffffffffffffffffffffffffffffffff021916908373ffffffffffffffffffffffffffffffffffffffff160217905550806001819055506200008c6200014e60201b60201c565b60025f6101000a81548173ffffffffffffffffffffffffffffffffffffffff021916908373ffffffffffffffffffffffffffffffffffffffff16021790555060025f9054906101000a900473ffffffffffffffffffffffffffffffffffffffff1673ffffffffffffffffffffffffffffffffffffffff165f73ffffffffffffffffffffffffffffffffffffffff167f8be0079c531659141344cd1fd0a4f28419497f9722a3daafe3b4186f6b6457e060405160405180910390a3505062000237565b5f33905090565b5f80fd5b5f73ffffffffffffffffffffffffffffffffffffffff82169050919050565b5f620001848262000159565b9050919050565b620001968162000178565b8114620001a1575f80fd5b50565b5f81519050620001b4816200018b565b92915050565b5f819050919050565b620001ce81620001ba565b8114620001d9575f80fd5b50565b5f81519050620001ec81620001c3565b92915050565b5f80604083850312156200020b576200020a62000155565b5b5f6200021a85828601620001a4565b92505060206200022d85828601620001dc565b9150509250929050565b610ffb80620002455f395ff3fe608060405234801561000f575f80fd5b506004361061007b575f3560e01c806341f3004a1161005957806341f3004a146100e95780638da5cb5b14610107578063960bfe0414610125578063f2fde38b146101415761007b565b80630ae1b13d1461007f5780630b1e7f831461009b57806326a4e8d2146100cd575b5f80fd5b61009960048036038101906100949190610a25565b61015d565b005b6100b560048036038101906100b09190610ace565b6102ab565b6040516100c493929190610bb2565b60405180910390f35b6100e760048036038101906100e29190610c1f565b61040b565b005b6100f16104e3565b6040516100fe9190610db0565b60405180910390f35b61010f6106b3565b60405161011c9190610dd0565b60405180910390f35b61013f600480360381019061013a9190610ace565b6106d8565b005b61015b60048036038101906101569190610c1f565b610778565b005b5f805f9054906101000a900473ffffffffffffffffffffffffffffffffffffffff1690505f8173ffffffffffffffffffffffffffffffffffffffff166370a08231336040518263ffffffff1660e01b81526004016101bb9190610dd0565b602060405180830381865afa1580156101d6573d5f803e3d5ffd5b505050506040513d601f19601f820116820180604052508101906101fa9190610dfd565b9050600154811015610241576040517f08c379a000000000000000000000000000000000000000000000000000000000815260040161023890610e72565b60405180910390fd5b8260405161024f9190610eca565b60405180910390203373ffffffffffffffffffffffffffffffffffffffff167f6c7f3182d7e4cb876251f9ae1489975fdbbf15d9f35d393f2ac9b1ff57cec69f8660405161029d9190610ee0565b60405180910390a350505050565b600381815481106102ba575f80fd5b905f5260205f2090600302015f91509050805f015f9054906101000a900473ffffffffffffffffffffffffffffffffffffffff16908060010180546102fe90610f2d565b80601f016020809104026020016040519081016040528092919081815260200182805461032a90610f2d565b80156103755780601f1061034c57610100808354040283529160200191610375565b820191905f5260205f20905b81548152906001019060200180831161035857829003601f168201915b50505050509080600201805461038a90610f2d565b80601f01602080910402602001604051908101604052809291908181526020018280546103b690610f2d565b80156104015780601f106103d857610100808354040283529160200191610401565b820191905f5260205f20905b8154815290600101906020018083116103e457829003601f168201915b5050505050905083565b6104136108d1565b73ffffffffffffffffffffffffffffffffffffffff1660025f9054906101000a900473ffffffffffffffffffffffffffffffffffffffff1673ffffffffffffffffffffffffffffffffffffffff16146104a1576040517f08c379a000000000000000000000000000000000000000000000000000000000815260040161049890610fa7565b60405180910390fd5b805f806101000a81548173ffffffffffffffffffffffffffffffffffffffff021916908373ffffffffffffffffffffffffffffffffffffffff16021790555050565b60606003805480602002602001604051908101604052809291908181526020015f905b828210156106aa578382905f5260205f2090600302016040518060600160405290815f82015f9054906101000a900473ffffffffffffffffffffffffffffffffffffffff1673ffffffffffffffffffffffffffffffffffffffff1673ffffffffffffffffffffffffffffffffffffffff16815260200160018201805461058b90610f2d565b80601f01602080910402602001604051908101604052809291908181526020018280546105b790610f2d565b80156106025780601f106105d957610100808354040283529160200191610602565b820191905f5260205f20905b8154815290600101906020018083116105e557829003601f168201915b5050505050815260200160028201805461061b90610f2d565b80601f016020809104026020016040519081016040528092919081815260200182805461064790610f2d565b80156106925780601f1061066957610100808354040283529160200191610692565b820191905f5260205f20905b81548152906001019060200180831161067557829003601f168201915b50505050508152505081526020019060010190610506565b50505050905090565b60025f9054906101000a900473ffffffffffffffffffffffffffffffffffffffff1681565b6106e06108d1565b73ffffffffffffffffffffffffffffffffffffffff1660025f9054906101000a900473ffffffffffffffffffffffffffffffffffffffff1673ffffffffffffffffffffffffffffffffffffffff161461076e576040517f08c379a000000000000000000000000000000000000000000000000000000000815260040161076590610fa7565b60405180910390fd5b8060018190555050565b6107806108d1565b73ffffffffffffffffffffffffffffffffffffffff1660025f9054906101000a900473ffffffffffffffffffffffffffffffffffffffff1673ffffffffffffffffffffffffffffffffffffffff161461080e576040517f08c379a000000000000000000000000000000000000000000000000000000000815260040161080590610fa7565b60405180910390fd5b5f60025f9054906101000a900473ffffffffffffffffffffffffffffffffffffffff1690508160025f6101000a81548173ffffffffffffffffffffffffffffffffffffffff021916908373ffffffffffffffffffffffffffffffffffffffff1602179055508173ffffffffffffffffffffffffffffffffffffffff168173ffffffffffffffffffffffffffffffffffffffff167f8be0079c531659141344cd1fd0a4f28419497f9722a3daafe3b4186f6b6457e060405160405180910390a35050565b5f33905090565b5f604051905090565b5f80fd5b5f80fd5b5f80fd5b5f80fd5b5f601f19601f8301169050919050565b7f4e487b71000000000000000000000000000000000000000000000000000000005f52604160045260245ffd5b610937826108f1565b810181811067ffffffffffffffff8211171561095657610955610901565b5b80604052505050565b5f6109686108d8565b9050610974828261092e565b919050565b5f67ffffffffffffffff82111561099357610992610901565b5b61099c826108f1565b9050602081019050919050565b828183375f83830152505050565b5f6109c96109c484610979565b61095f565b9050828152602081018484840111156109e5576109e46108ed565b5b6109f08482856109a9565b509392505050565b5f82601f830112610a0c57610a0b6108e9565b5b8135610a1c8482602086016109b7565b91505092915050565b5f8060408385031215610a3b57610a3a6108e1565b5b5f83013567ffffffffffffffff811115610a5857610a576108e5565b5b610a64858286016109f8565b925050602083013567ffffffffffffffff811115610a8557610a846108e5565b5b610a91858286016109f8565b9150509250929050565b5f819050919050565b610aad81610a9b565b8114610ab7575f80fd5b50565b5f81359050610ac881610aa4565b92915050565b5f60208284031215610ae357610ae26108e1565b5b5f610af084828501610aba565b91505092915050565b5f73ffffffffffffffffffffffffffffffffffffffff82169050919050565b5f610b2282610af9565b9050919050565b610b3281610b18565b82525050565b5f81519050919050565b5f82825260208201905092915050565b5f5b83811015610b6f578082015181840152602081019050610b54565b5f8484015250505050565b5f610b8482610b38565b610b8e8185610b42565b9350610b9e818560208601610b52565b610ba7816108f1565b840191505092915050565b5f606082019050610bc55f830186610b29565b8181036020830152610bd78185610b7a565b90508181036040830152610beb8184610b7a565b9050949350505050565b610bfe81610b18565b8114610c08575f80fd5b50565b5f81359050610c1981610bf5565b92915050565b5f60208284031215610c3457610c336108e1565b5b5f610c4184828501610c0b565b91505092915050565b5f81519050919050565b5f82825260208201905092915050565b5f819050602082019050919050565b610c7c81610b18565b82525050565b5f82825260208201905092915050565b5f610c9c82610b38565b610ca68185610c82565b9350610cb6818560208601610b52565b610cbf816108f1565b840191505092915050565b5f606083015f830151610cdf5f860182610c73565b5060208301518482036020860152610cf78282610c92565b91505060408301518482036040860152610d118282610c92565b9150508091505092915050565b5f610d298383610cca565b905092915050565b5f602082019050919050565b5f610d4782610c4a565b610d518185610c54565b935083602082028501610d6385610c64565b805f5b85811015610d9e5784840389528151610d7f8582610d1e565b9450610d8a83610d31565b925060208a01995050600181019050610d66565b50829750879550505050505092915050565b5f6020820190508181035f830152610dc88184610d3d565b905092915050565b5f602082019050610de35f830184610b29565b92915050565b5f81519050610df781610aa4565b92915050565b5f60208284031215610e1257610e116108e1565b5b5f610e1f84828501610de9565b91505092915050565b7f4e6f7420656e6f75676820746f6b656e730000000000000000000000000000005f82015250565b5f610e5c601183610b42565b9150610e6782610e28565b602082019050919050565b5f6020820190508181035f830152610e8981610e50565b9050919050565b5f81905092915050565b5f610ea482610b38565b610eae8185610e90565b9350610ebe818560208601610b52565b80840191505092915050565b5f610ed58284610e9a565b915081905092915050565b5f6020820190508181035f830152610ef88184610b7a565b905092915050565b7f4e487b71000000000000000000000000000000000000000000000000000000005f52602260045260245ffd5b5f6002820490506001821680610f4457607f821691505b602082108103610f5757610f56610f00565b5b50919050565b7f4f776e61626c653a2063616c6c6572206973206e6f7420746865206f776e65725f82015250565b5f610f91602083610b42565b9150610f9c82610f5d565b602082019050919050565b5f6020820190508181035f830152610fbe81610f85565b905091905056fea26469706673582212205bcac6595f23cf042ec817a001ace6b234f0e39e5d7c3f3282a0c3f41801ae2364736f6c63430008140033",
  "immutableReferences": {},
  "source": "// SPDX-License-Identifier: MIT\r\npragma solidity >=0.8.20 <0.9.0;\r\n\r\nimport \"@openzeppelin/contracts/token/ERC20/IERC20.sol\";\r\n\r\n\r\npragma experimental ABIEncoderV2;\r\n\r\ncontract Poster {\r\n    event NewPost(address indexed user, string content, string indexed tag);\r\n    address tokenAddress;\r\n    uint256 threshold;\r\n\r\n    address public owner;\r\n    event OwnershipTransferred(address indexed previousOwner, address indexed newOwner);\r\n\r\n    constructor(address _tokenAddress, uint256 _threshold) {\r\n        tokenAddress = _tokenAddress;\r\n        threshold = _threshold;\r\n        owner = _msgSender();\r\n        emit OwnershipTransferred(address(0x0), owner);\r\n    }\r\n    \r\n    modifier onlyOwner() {\r\n        require(owner == _msgSender(), \"Ownable: caller is not the owner\");\r\n        _;\r\n    }\r\n    function transferOwnership(address _newOwner) public virtual onlyOwner {\r\n        address oldOwner = owner;\r\n        owner = _newOwner;\r\n        emit OwnershipTransferred(oldOwner, _newOwner);\r\n    }\r\n\r\n    struct Post {\r\n        address user;\r\n        string content;\r\n        string tag;\r\n    }\r\n\r\n    Post[] public posts;\r\n\r\n    function post(string memory content, string memory tag) public {\r\n        IERC20 token = IERC20(tokenAddress);\r\n        uint256 balance = token.balanceOf(msg.sender);\r\n        if (balance < threshold) revert(\"Not enough tokens\");\r\n        emit NewPost(msg.sender, content, tag);\r\n    }\r\n    \r\n    function getPosts() public view returns (Post[] memory) {\r\n        return posts;\r\n    }\r\n\r\n    function setTokenAddress(address _newTokenAddress) public onlyOwner {\r\n        tokenAddress = _newTokenAddress;\r\n    }\r\n\r\n    function setThreshold(uint256 _newThreshold) public onlyOwner {\r\n        threshold = _newThreshold;\r\n    }\r\n    function _msgSender() internal view virtual returns (address) {\r\n        return msg.sender;\r\n    }\r\n}",
  "sourcePath": "C:\\Users\\mukhi\\token-gated-poster\\contracts\\Poster.sol",
  "compiler": {
    "name": "solc",
    "version": "0.8.20+commit.a1b79de6.Emscripten.clang"
  },
  "schemaVersion": "3.4.16",
  "updatedAt": "2024-12-12T18:23:57.007Z",
  "networkType": "ethereum",
  "devdoc": {
    "kind": "dev",
    "methods": {},
    "version": 1
  },
  "userdoc": {
    "kind": "user",
    "methods": {},
    "version": 1
  },
  "db": {
    "callBytecode": {
      "id": "0x9d8bfeae2f684eb19d9d81cdebb7078a02cf75673315f864af0d1286ebd8cc31"
    },
    "createBytecode": {
      "id": "0x90d9da647034435e86d503cadb568a26cc3d2ebb3d3a5bbac6bf7e773c7ded83"
    },
    "contract": {
      "id": "0xaf9746834a3135cd777402e5860f843cee25aa640beb8599ee47235907b7f838"
    }
  }
}