{
  "contractName": "Token",
  "abi": [
    {
      "inputs": [
        {
          "internalType": "string",
          "name": "_name",
          "type": "string"
        },
        {
          "internalType": "string",
          "name": "_symbol",
          "type": "string"
        },
        {
          "internalType": "uint256",
          "name": "_totalSupply",
          "type": "uint256"
        }
      ],
      "stateMutability": "nonpayable",
      "type": "constructor"
    },
    {
      "anonymous": false,
      "inputs": [
        {
          "indexed": true,
          "internalType": "address",
          "name": "owner",
          "type": "address"
        },
        {
          "indexed": true,
          "internalType": "address",
          "name": "spender",
          "type": "address"
        },
        {
          "indexed": false,
          "internalType": "uint256",
          "name": "value",
          "type": "uint256"
        }
      ],
      "name": "Approval",
      "type": "event"
    },
    {
      "anonymous": false,
      "inputs": [
        {
          "indexed": true,
          "internalType": "address",
          "name": "previousOwner",
          "type": "address"
        },
        {
          "indexed": true,
          "internalType": "address",
          "name": "newOwner",
          "type": "address"
        }
      ],
      "name": "OwnershipTransferred",
      "type": "event"
    },
    {
      "anonymous": false,
      "inputs": [
        {
          "indexed": true,
          "internalType": "address",
          "name": "from",
          "type": "address"
        },
        {
          "indexed": true,
          "internalType": "address",
          "name": "to",
          "type": "address"
        },
        {
          "indexed": false,
          "internalType": "uint256",
          "name": "value",
          "type": "uint256"
        }
      ],
      "name": "Transfer",
      "type": "event"
    },
    {
      "inputs": [],
      "name": "decimals",
      "outputs": [
        {
          "internalType": "uint8",
          "name": "",
          "type": "uint8"
        }
      ],
      "stateMutability": "view",
      "type": "function"
    },
    {
      "inputs": [],
      "name": "name",
      "outputs": [
        {
          "internalType": "string",
          "name": "",
          "type": "string"
        }
      ],
      "stateMutability": "view",
      "type": "function"
    },
    {
      "inputs": [],
      "name": "owner",
      "outputs": [
        {
          "internalType": "address",
          "name": "",
          "type": "address"
        }
      ],
      "stateMutability": "view",
      "type": "function"
    },
    {
      "inputs": [],
      "name": "symbol",
      "outputs": [
        {
          "internalType": "string",
          "name": "",
          "type": "string"
        }
      ],
      "stateMutability": "view",
      "type": "function"
    },
    {
      "inputs": [],
      "name": "totalSupply",
      "outputs": [
        {
          "internalType": "uint256",
          "name": "",
          "type": "uint256"
        }
      ],
      "stateMutability": "view",
      "type": "function"
    },
    {
      "inputs": [
        {
          "internalType": "address",
          "name": "_newOwner",
          "type": "address"
        }
      ],
      "name": "transferOwnership",
      "outputs": [],
      "stateMutability": "nonpayable",
      "type": "function"
    },
    {
      "inputs": [
        {
          "internalType": "address",
          "name": "account",
          "type": "address"
        }
      ],
      "name": "balanceOf",
      "outputs": [
        {
          "internalType": "uint256",
          "name": "",
          "type": "uint256"
        }
      ],
      "stateMutability": "view",
      "type": "function"
    },
    {
      "inputs": [
        {
          "internalType": "address",
          "name": "to",
          "type": "address"
        },
        {
          "internalType": "uint256",
          "name": "amount",
          "type": "uint256"
        }
      ],
      "name": "transfer",
      "outputs": [
        {
          "internalType": "bool",
          "name": "",
          "type": "bool"
        }
      ],
      "stateMutability": "nonpayable",
      "type": "function"
    },
    {
      "inputs": [
        {
          "internalType": "address",
          "name": "_owner",
          "type": "address"
        },
        {
          "internalType": "address",
          "name": "_spender",
          "type": "address"
        }
      ],
      "name": "allowance",
      "outputs": [
        {
          "internalType": "uint256",
          "name": "",
          "type": "uint256"
        }
      ],
      "stateMutability": "view",
      "type": "function"
    },
    {
      "inputs": [
        {
          "internalType": "address",
          "name": "spender",
          "type": "address"
        },
        {
          "internalType": "uint256",
          "name": "amount",
          "type": "uint256"
        }
      ],
      "name": "approve",
      "outputs": [
        {
          "internalType": "bool",
          "name": "",
          "type": "bool"
        }
      ],
      "stateMutability": "nonpayable",
      "type": "function"
    },
    {
      "inputs": [
        {
          "internalType": "address",
          "name": "from",
          "type": "address"
        },
        {
          "internalType": "address",
          "name": "to",
          "type": "address"
        },
        {
          "internalType": "uint256",
          "name": "amount",
          "type": "uint256"
        }
      ],
      "name": "transferFrom",
      "outputs": [
        {
          "internalType": "bool",
          "name": "",
          "type": "bool"
        }
      ],
      "stateMutability": "nonpayable",
      "type": "function"
    },
    {
      "inputs": [
        {
          "internalType": "address",
          "name": "_account",
          "type": "address"
        },
        {
          "internalType": "uint256",
          "name": "amount",
          "type": "uint256"
        }
      ],
      "name": "mint",
      "outputs": [],
      "stateMutability": "nonpayable",
      "type": "function"
    }
  ],
  "bytecode": "0x6080604052601260045f6101000a81548160ff021916908360ff1602179055503480156200002b575f80fd5b5060405162001c7738038062001c778339818101604052810190620000519190620003dd565b8260029081620000629190620006a2565b508160039081620000749190620006a2565b50806005819055506200008c6200021960201b60201c565b60065f6101000a81548173ffffffffffffffffffffffffffffffffffffffff021916908373ffffffffffffffffffffffffffffffffffffffff1602179055506005545f80620000e06200021960201b60201c565b73ffffffffffffffffffffffffffffffffffffffff1673ffffffffffffffffffffffffffffffffffffffff1681526020019081526020015f20819055506200012d6200021960201b60201c565b73ffffffffffffffffffffffffffffffffffffffff165f73ffffffffffffffffffffffffffffffffffffffff167fddf252ad1be2c89b69c2b068fc378daa952ba7f163c4a11628f55a4df523b3ef6005546040516200018d919062000797565b60405180910390a360065f9054906101000a900473ffffffffffffffffffffffffffffffffffffffff1673ffffffffffffffffffffffffffffffffffffffff165f73ffffffffffffffffffffffffffffffffffffffff167f8be0079c531659141344cd1fd0a4f28419497f9722a3daafe3b4186f6b6457e060405160405180910390a3505050620007b2565b5f33905090565b5f604051905090565b5f80fd5b5f80fd5b5f80fd5b5f80fd5b5f601f19601f8301169050919050565b7f4e487b71000000000000000000000000000000000000000000000000000000005f52604160045260245ffd5b620002818262000239565b810181811067ffffffffffffffff82111715620002a357620002a262000249565b5b80604052505050565b5f620002b762000220565b9050620002c5828262000276565b919050565b5f67ffffffffffffffff821115620002e757620002e662000249565b5b620002f28262000239565b9050602081019050919050565b5f5b838110156200031e57808201518184015260208101905062000301565b5f8484015250505050565b5f6200033f6200033984620002ca565b620002ac565b9050828152602081018484840111156200035e576200035d62000235565b5b6200036b848285620002ff565b509392505050565b5f82601f8301126200038a576200038962000231565b5b81516200039c84826020860162000329565b91505092915050565b5f819050919050565b620003b981620003a5565b8114620003c4575f80fd5b50565b5f81519050620003d781620003ae565b92915050565b5f805f60608486031215620003f757620003f662000229565b5b5f84015167ffffffffffffffff8111156200041757620004166200022d565b5b620004258682870162000373565b935050602084015167ffffffffffffffff8111156200044957620004486200022d565b5b620004578682870162000373565b92505060406200046a86828701620003c7565b9150509250925092565b5f81519050919050565b7f4e487b71000000000000000000000000000000000000000000000000000000005f52602260045260245ffd5b5f6002820490506001821680620004c357607f821691505b602082108103620004d957620004d86200047e565b5b50919050565b5f819050815f5260205f209050919050565b5f6020601f8301049050919050565b5f82821b905092915050565b5f600883026200053d7fffffffffffffffffffffffffffffffffffffffffffffffffffffffffffffffff8262000500565b62000549868362000500565b95508019841693508086168417925050509392505050565b5f819050919050565b5f6200058a620005846200057e84620003a5565b62000561565b620003a5565b9050919050565b5f819050919050565b620005a5836200056a565b620005bd620005b48262000591565b8484546200050c565b825550505050565b5f90565b620005d3620005c5565b620005e08184846200059a565b505050565b5b818110156200060757620005fb5f82620005c9565b600181019050620005e6565b5050565b601f82111562000656576200062081620004df565b6200062b84620004f1565b810160208510156200063b578190505b620006536200064a85620004f1565b830182620005e5565b50505b505050565b5f82821c905092915050565b5f620006785f19846008026200065b565b1980831691505092915050565b5f62000692838362000667565b9150826002028217905092915050565b620006ad8262000474565b67ffffffffffffffff811115620006c957620006c862000249565b5b620006d58254620004ab565b620006e28282856200060b565b5f60209050601f83116001811462000718575f841562000703578287015190505b6200070f858262000685565b8655506200077e565b601f1984166200072886620004df565b5f5b8281101562000751578489015182556001820191506020850194506020810190506200072a565b868310156200077157848901516200076d601f89168262000667565b8355505b6001600288020188555050505b505050505050565b6200079181620003a5565b82525050565b5f602082019050620007ac5f83018462000786565b92915050565b6114b780620007c05f395ff3fe608060405234801561000f575f80fd5b50600436106100b2575f3560e01c806370a082311161006f57806370a082311461018c5780638da5cb5b146101bc57806395d89b41146101da578063a9059cbb146101f8578063dd62ed3e14610228578063f2fde38b14610258576100b2565b806306fdde03146100b6578063095ea7b3146100d457806318160ddd1461010457806323b872dd14610122578063313ce5671461015257806340c10f1914610170575b5f80fd5b6100be610274565b6040516100cb9190610d67565b60405180910390f35b6100ee60048036038101906100e99190610e18565b610300565b6040516100fb9190610e70565b60405180910390f35b61010c610322565b6040516101199190610e98565b60405180910390f35b61013c60048036038101906101379190610eb1565b610328565b6040516101499190610e70565b60405180910390f35b61015a610356565b6040516101679190610f1c565b60405180910390f35b61018a60048036038101906101859190610e18565b610368565b005b6101a660048036038101906101a19190610f35565b61053f565b6040516101b39190610e98565b60405180910390f35b6101c4610584565b6040516101d19190610f6f565b60405180910390f35b6101e26105a9565b6040516101ef9190610d67565b60405180910390f35b610212600480360381019061020d9190610e18565b610635565b60405161021f9190610e70565b60405180910390f35b610242600480360381019061023d9190610f88565b610657565b60405161024f9190610e98565b60405180910390f35b610272600480360381019061026d9190610f35565b6106d9565b005b6002805461028190610ff3565b80601f01602080910402602001604051908101604052809291908181526020018280546102ad90610ff3565b80156102f85780601f106102cf576101008083540402835291602001916102f8565b820191905f5260205f20905b8154815290600101906020018083116102db57829003601f168201915b505050505081565b5f8061030a610832565b9050610317818585610839565b600191505092915050565b60055481565b5f80610332610832565b905061033f8582856109fc565b61034a858585610a87565b60019150509392505050565b60045f9054906101000a900460ff1681565b610370610832565b73ffffffffffffffffffffffffffffffffffffffff1660065f9054906101000a900473ffffffffffffffffffffffffffffffffffffffff1673ffffffffffffffffffffffffffffffffffffffff16146103fe576040517f08c379a00000000000000000000000000000000000000000000000000000000081526004016103f59061106d565b60405180910390fd5b5f73ffffffffffffffffffffffffffffffffffffffff168273ffffffffffffffffffffffffffffffffffffffff160361046c576040517f08c379a0000000000000000000000000000000000000000000000000000000008152600401610463906110d5565b60405180910390fd5b8060055f82825461047d9190611120565b92505081905550805f808473ffffffffffffffffffffffffffffffffffffffff1673ffffffffffffffffffffffffffffffffffffffff1681526020019081526020015f205f8282546104cf9190611120565b925050819055508173ffffffffffffffffffffffffffffffffffffffff165f73ffffffffffffffffffffffffffffffffffffffff167fddf252ad1be2c89b69c2b068fc378daa952ba7f163c4a11628f55a4df523b3ef836040516105339190610e98565b60405180910390a35050565b5f805f8373ffffffffffffffffffffffffffffffffffffffff1673ffffffffffffffffffffffffffffffffffffffff1681526020019081526020015f20549050919050565b60065f9054906101000a900473ffffffffffffffffffffffffffffffffffffffff1681565b600380546105b690610ff3565b80601f01602080910402602001604051908101604052809291908181526020018280546105e290610ff3565b801561062d5780601f106106045761010080835404028352916020019161062d565b820191905f5260205f20905b81548152906001019060200180831161061057829003601f168201915b505050505081565b5f8061063f610832565b905061064c818585610a87565b600191505092915050565b5f60015f8473ffffffffffffffffffffffffffffffffffffffff1673ffffffffffffffffffffffffffffffffffffffff1681526020019081526020015f205f8373ffffffffffffffffffffffffffffffffffffffff1673ffffffffffffffffffffffffffffffffffffffff1681526020019081526020015f2054905092915050565b6106e1610832565b73ffffffffffffffffffffffffffffffffffffffff1660065f9054906101000a900473ffffffffffffffffffffffffffffffffffffffff1673ffffffffffffffffffffffffffffffffffffffff161461076f576040517f08c379a00000000000000000000000000000000000000000000000000000000081526004016107669061106d565b60405180910390fd5b5f60065f9054906101000a900473ffffffffffffffffffffffffffffffffffffffff1690508160065f6101000a81548173ffffffffffffffffffffffffffffffffffffffff021916908373ffffffffffffffffffffffffffffffffffffffff1602179055508173ffffffffffffffffffffffffffffffffffffffff168173ffffffffffffffffffffffffffffffffffffffff167f8be0079c531659141344cd1fd0a4f28419497f9722a3daafe3b4186f6b6457e060405160405180910390a35050565b5f33905090565b5f73ffffffffffffffffffffffffffffffffffffffff168373ffffffffffffffffffffffffffffffffffffffff16036108a7576040517f08c379a000000000000000000000000000000000000000000000000000000000815260040161089e906111c3565b60405180910390fd5b5f73ffffffffffffffffffffffffffffffffffffffff168273ffffffffffffffffffffffffffffffffffffffff1603610915576040517f08c379a000000000000000000000000000000000000000000000000000000000815260040161090c90611251565b60405180910390fd5b8060015f8573ffffffffffffffffffffffffffffffffffffffff1673ffffffffffffffffffffffffffffffffffffffff1681526020019081526020015f205f8473ffffffffffffffffffffffffffffffffffffffff1673ffffffffffffffffffffffffffffffffffffffff1681526020019081526020015f20819055508173ffffffffffffffffffffffffffffffffffffffff168373ffffffffffffffffffffffffffffffffffffffff167f8c5be1e5ebec7d5bd14f71427d1e84f3dd0314c0f7b2291e5b200ac8c7c3b925836040516109ef9190610e98565b60405180910390a3505050565b5f610a078484610657565b90507fffffffffffffffffffffffffffffffffffffffffffffffffffffffffffffffff8114610a815781811015610a73576040517f08c379a0000000000000000000000000000000000000000000000000000000008152600401610a6a906112b9565b60405180910390fd5b610a808484848403610839565b5b50505050565b5f73ffffffffffffffffffffffffffffffffffffffff168373ffffffffffffffffffffffffffffffffffffffff1603610af5576040517f08c379a0000000000000000000000000000000000000000000000000000000008152600401610aec90611347565b60405180910390fd5b5f73ffffffffffffffffffffffffffffffffffffffff168273ffffffffffffffffffffffffffffffffffffffff1603610b63576040517f08c379a0000000000000000000000000000000000000000000000000000000008152600401610b5a906113d5565b60405180910390fd5b5f805f8573ffffffffffffffffffffffffffffffffffffffff1673ffffffffffffffffffffffffffffffffffffffff1681526020019081526020015f2054905081811015610be6576040517f08c379a0000000000000000000000000000000000000000000000000000000008152600401610bdd90611463565b60405180910390fd5b8181035f808673ffffffffffffffffffffffffffffffffffffffff1673ffffffffffffffffffffffffffffffffffffffff1681526020019081526020015f2081905550815f808573ffffffffffffffffffffffffffffffffffffffff1673ffffffffffffffffffffffffffffffffffffffff1681526020019081526020015f205f82825401925050819055508273ffffffffffffffffffffffffffffffffffffffff168473ffffffffffffffffffffffffffffffffffffffff167fddf252ad1be2c89b69c2b068fc378daa952ba7f163c4a11628f55a4df523b3ef84604051610ccf9190610e98565b60405180910390a350505050565b5f81519050919050565b5f82825260208201905092915050565b5f5b83811015610d14578082015181840152602081019050610cf9565b5f8484015250505050565b5f601f19601f8301169050919050565b5f610d3982610cdd565b610d438185610ce7565b9350610d53818560208601610cf7565b610d5c81610d1f565b840191505092915050565b5f6020820190508181035f830152610d7f8184610d2f565b905092915050565b5f80fd5b5f73ffffffffffffffffffffffffffffffffffffffff82169050919050565b5f610db482610d8b565b9050919050565b610dc481610daa565b8114610dce575f80fd5b50565b5f81359050610ddf81610dbb565b92915050565b5f819050919050565b610df781610de5565b8114610e01575f80fd5b50565b5f81359050610e1281610dee565b92915050565b5f8060408385031215610e2e57610e2d610d87565b5b5f610e3b85828601610dd1565b9250506020610e4c85828601610e04565b9150509250929050565b5f8115159050919050565b610e6a81610e56565b82525050565b5f602082019050610e835f830184610e61565b92915050565b610e9281610de5565b82525050565b5f602082019050610eab5f830184610e89565b92915050565b5f805f60608486031215610ec857610ec7610d87565b5b5f610ed586828701610dd1565b9350506020610ee686828701610dd1565b9250506040610ef786828701610e04565b9150509250925092565b5f60ff82169050919050565b610f1681610f01565b82525050565b5f602082019050610f2f5f830184610f0d565b92915050565b5f60208284031215610f4a57610f49610d87565b5b5f610f5784828501610dd1565b91505092915050565b610f6981610daa565b82525050565b5f602082019050610f825f830184610f60565b92915050565b5f8060408385031215610f9e57610f9d610d87565b5b5f610fab85828601610dd1565b9250506020610fbc85828601610dd1565b9150509250929050565b7f4e487b71000000000000000000000000000000000000000000000000000000005f52602260045260245ffd5b5f600282049050600182168061100a57607f821691505b60208210810361101d5761101c610fc6565b5b50919050565b7f4f776e61626c653a2063616c6c6572206973206e6f7420746865206f776e65725f82015250565b5f611057602083610ce7565b915061106282611023565b602082019050919050565b5f6020820190508181035f8301526110848161104b565b9050919050565b7f45524332303a206d696e7420746f20746865207a65726f2061646472657373005f82015250565b5f6110bf601f83610ce7565b91506110ca8261108b565b602082019050919050565b5f6020820190508181035f8301526110ec816110b3565b9050919050565b7f4e487b71000000000000000000000000000000000000000000000000000000005f52601160045260245ffd5b5f61112a82610de5565b915061113583610de5565b925082820190508082111561114d5761114c6110f3565b5b92915050565b7f45524332303a20617070726f76652066726f6d20746865207a65726f206164645f8201527f7265737300000000000000000000000000000000000000000000000000000000602082015250565b5f6111ad602483610ce7565b91506111b882611153565b604082019050919050565b5f6020820190508181035f8301526111da816111a1565b9050919050565b7f45524332303a20617070726f766520746f20746865207a65726f2061646472655f8201527f7373000000000000000000000000000000000000000000000000000000000000602082015250565b5f61123b602283610ce7565b9150611246826111e1565b604082019050919050565b5f6020820190508181035f8301526112688161122f565b9050919050565b7f45524332303a20696e73756666696369656e7420616c6c6f77616e63650000005f82015250565b5f6112a3601d83610ce7565b91506112ae8261126f565b602082019050919050565b5f6020820190508181035f8301526112d081611297565b9050919050565b7f45524332303a207472616e736665722066726f6d20746865207a65726f2061645f8201527f6472657373000000000000000000000000000000000000000000000000000000602082015250565b5f611331602583610ce7565b915061133c826112d7565b604082019050919050565b5f6020820190508181035f83015261135e81611325565b9050919050565b7f45524332303a207472616e7366657220746f20746865207a65726f20616464725f8201527f6573730000000000000000000000000000000000000000000000000000000000602082015250565b5f6113bf602383610ce7565b91506113ca82611365565b604082019050919050565b5f6020820190508181035f8301526113ec816113b3565b9050919050565b7f45524332303a207472616e7366657220616d6f756e74206578636565647320625f8201527f616c616e63650000000000000000000000000000000000000000000000000000602082015250565b5f61144d602683610ce7565b9150611458826113f3565b604082019050919050565b5f6020820190508181035f83015261147a81611441565b905091905056fea26469706673582212205cb730d4310b73661f63b94f9d54fe8c6651ef82fcf972a0d7bf63fc26923e6b64736f6c63430008140033",
  "immutableReferences": {},
  "source": "// SPDX-License-Identifier: MIT\r\npragma solidity >=0.8.20 <0.9.0;\r\n\r\nimport \"@openzeppelin/contracts/token/ERC20/IERC20.sol\";\r\nimport \"@openzeppelin/contracts/token/ERC20/extensions/IERC20Metadata.sol\";\r\nimport \"@openzeppelin/contracts/utils/Context.sol\";\r\n\r\ncontract Token is Context, IERC20, IERC20Metadata {\r\n    mapping(address => uint256) private balances;\r\n    mapping(address => mapping(address => uint256)) private allowances;\r\n\r\n    string public name;\r\n    string public symbol;\r\n    uint8 public decimals = 18;\r\n    uint256 public totalSupply;\r\n    address public owner;\r\n\r\n    event OwnershipTransferred(address indexed previousOwner, address indexed newOwner);\r\n\r\n    constructor(string memory _name, string memory _symbol, uint256 _totalSupply) {\r\n        name = _name;\r\n        symbol = _symbol;\r\n        totalSupply = _totalSupply;\r\n        owner = _msgSender();\r\n\r\n        //     totalSupply\r\n        balances[_msgSender()] = totalSupply;\r\n\r\n        //   Transfer  from = address(0)\r\n        emit Transfer(address(0), _msgSender(), totalSupply);\r\n\r\n        emit OwnershipTransferred(address(0x0), owner);\r\n    }\r\n\r\n    modifier onlyOwner() {\r\n        require(owner == _msgSender(), \"Ownable: caller is not the owner\");\r\n        _;\r\n    }\r\n\r\n    function transferOwnership(address _newOwner) public virtual onlyOwner {\r\n        address oldOwner = owner;\r\n        owner = _newOwner;\r\n        emit OwnershipTransferred(oldOwner, _newOwner);\r\n    }\r\n\r\n    function balanceOf(address account) public view override returns (uint256) {\r\n        return balances[account];\r\n    }\r\n\r\n    function transfer(address to, uint256 amount) public override returns (bool) {\r\n        address from = _msgSender();\r\n        _transfer(from, to, amount);\r\n        return true;\r\n    }\r\n\r\n    function allowance(address _owner, address _spender) public view override returns (uint256) {\r\n        return allowances[_owner][_spender];\r\n    }\r\n\r\n    function approve(address spender, uint256 amount) public override returns (bool) {\r\n        address from = _msgSender();\r\n        _approve(from, spender, amount);\r\n        return true;\r\n    }\r\n\r\n    function transferFrom(address from, address to, uint256 amount) public override returns (bool) {\r\n        address spender = _msgSender();\r\n        _spendAllowance(from, spender, amount);\r\n        _transfer(from, to, amount);\r\n        return true;\r\n    }\r\n\r\n    function mint(address _account, uint256 amount) public onlyOwner {\r\n        require(_account != address(0), \"ERC20: mint to the zero address\");\r\n        //   \r\n        totalSupply += amount;\r\n        // amount    \r\n        balances[_account] += amount;\r\n        //  Transfer c from = address(0)\r\n        emit Transfer(address(0), _account, amount);\r\n    }\r\n\r\n    function _transfer(address from, address to, uint256 amount) internal {\r\n        require(from != address(0), \"ERC20: transfer from the zero address\");\r\n        require(to != address(0), \"ERC20: transfer to the zero address\");\r\n\r\n        uint256 fromBalance = balances[from];\r\n        require(fromBalance >= amount, \"ERC20: transfer amount exceeds balance\");\r\n        unchecked {\r\n            balances[from] = fromBalance - amount;\r\n            balances[to] += amount;\r\n        }\r\n\r\n        emit Transfer(from, to, amount);\r\n    }\r\n\r\n    function _approve(address _owner, address _spender, uint256 _amount) internal {\r\n        require(_owner != address(0), \"ERC20: approve from the zero address\");\r\n        require(_spender != address(0), \"ERC20: approve to the zero address\");\r\n        allowances[_owner][_spender] = _amount;\r\n        emit Approval(_owner, _spender, _amount);\r\n    }\r\n\r\n    function _spendAllowance(address _owner, address _spender, uint256 _amount) internal {\r\n        uint256 currentAllowance = allowance(_owner, _spender);\r\n        if (currentAllowance != type(uint256).max) {\r\n            require(currentAllowance >= _amount, \"ERC20: insufficient allowance\");\r\n            unchecked {\r\n                _approve(_owner, _spender, currentAllowance - _amount);\r\n            }\r\n        }\r\n    }\r\n}",
  "sourcePath": "C:\\Users\\mukhi\\token-gated-poster\\contracts\\Token.sol",
  "compiler": {
    "name": "solc",
    "version": "0.8.20+commit.a1b79de6.Emscripten.clang"
  },
  "schemaVersion": "3.4.16",
  "updatedAt": "2024-12-12T18:23:07.123Z",
  "devdoc": {
    "events": {
      "Approval(address,address,uint256)": {
        "details": "Emitted when the allowance of a `spender` for an `owner` is set by a call to {approve}. `value` is the new allowance."
      },
      "Transfer(address,address,uint256)": {
        "details": "Emitted when `value` tokens are moved from one account (`from`) to another (`to`). Note that `value` may be zero."
      }
    },
    "kind": "dev",
    "methods": {
      "balanceOf(address)": {
        "details": "Returns the value of tokens owned by `account`."
      }
    },
    "stateVariables": {
      "decimals": {
        "details": "Returns the decimals places of the token."
      },
      "name": {
        "details": "Returns the name of the token."
      },
      "symbol": {
        "details": "Returns the symbol of the token."
      },
      "totalSupply": {
        "details": "Returns the value of tokens in existence."
      }
    },
    "version": 1
  },
  "userdoc": {
    "kind": "user",
    "methods": {},
    "version": 1
  },
  "db": {
    "callBytecode": {
      "id": "0x5e7e291af5ce1be62b3ef14a7ae582a0507d5c8daa846edb4f802f286c7ffde6"
    },
    "createBytecode": {
      "id": "0x2f54e4db662df51c2fc13423570c5fd5c5e415d7d3f07e391523f82f569f50df"
    },
    "contract": {
      "id": "0x750d727ef5b44016e10fa60571912893efc4d456c36fe10bfee9ee843bc0bcbd"
    }
  }
}